:1000000008C1000037C1000035C1000033C1000045
:1000100031C100002FC100002DC100002BC1000024
:1000200029C1000027C1000025C1000023C1000034
:1000300021C100001FC100001DC100001BC1000044
:1000400019C10000DFC2000015C1000013C100008B
:1000500011C100000FC100000DC10000EBC4000081
:1000600009C10000F4C700000C945D0803C1000042
:1000700001C10000FFC00000FDC00000FBC0000087
:10008000EEC20000F7C00000F5C00000F3C00000A1
:10009000F1C00000EFC00000EDC00000EBC00000A8
:1000A000E9C00000E7C0000007C30000E3C0000093
:1000B000E1C00000DFC00000DDC000002AC3000076
:1000C000D9C00000D7C00000D5C00000D3C00000D8
:1000D000D1C00000CFC00000CDC00000CBC00000E8
:1000E000C9C000000F061206010605060B064906E8
:1000F00016061A062006240628062E06320636069E
:1001000049063C064006440600000A0B02090C0D95
:100110000E080703040100000000000000000000BA
:1001200000000000000000000000000000000000CF
:10013000000000001211100000000000000000008C
:1001400000000000000000000000000000000102AC
:1001500010202008081020401020408002010201D9
:100160000804020101020408102040808040201091
:1001700008040201800402018040201008040201EA
:100180000804020101020408102040800102040852
:10019000102040800505050507050808080802022B
:1001A00002020A0A08080404040401010101010111
:1001B00001010303030303030303040707070C0CF4
:1001C0000C0C0C0C0C0C02020202060606060606BB
:1001D00006060B0B0B0B0B0B0B0B00002200250074
:1001E00028002B002E003100340002010000050120
:1001F00008010B0100002100240027002A002D0027
:100200003000330001010000040107010A0131023E
:100210008F0811241FBECFEFD1E2DEBFCDBF00E0BB
:100220000CBF12E0A0E0B2E0E2E9F3E100E00BBFB6
:1002300002C007900D92AC31B107D9F723E0ACE1D1
:10024000B2E001C01D92A138B207E1F712E0C2E1AD
:10025000D2E000E006C022970109FE010BBF0E9418
:10026000B409CE30D10780E00807A9F70E94400901
:100270000C94C709C5CE26E040E855E260E070E086
:1002800084EE92E084D666E070E083E492E037D3B7
:1002900065E070E080E492E032D364E070E08DE3EA
:1002A00092E02DD363E070E08AE392E028D362E02D
:1002B00070E087E392E023D367E070E084E392E0AC
:1002C0001EC3AF92BF92CF92DF92EF92FF920F9335
:1002D0001F93BC0180E090E01F921F921F921F921B
:1002E000A12C24E0B22EC12CD12CEE24EA9413E0F0
:1002F000F12E00E010E020E030E0A9017BD7882754
:1003000099271F921F921F9224EB2F93A12CB12C9F
:10031000650120E030E0A9016DD7CB012DB73EB7D4
:10032000285F3F4F0FB6F8943EBF0FBE2DBF653B11
:10033000710510F084EB90E01F910F91FF90EF900A
:10034000DF90CF90BF90AF900895CF92DF92EF9261
:10035000FF92BAD36B017C01B7D36C197D098E096A
:100360009F09663971058105910598F481E01AD4D9
:10037000909333028093320282E014D490932B0244
:1003800080932A0280E00ED490932302809322026D
:10039000E3CF809130029091310220910802309198
:1003A0000902821B930B90932F0280932E022091BF
:1003B0002802309129024091060250910702241B25
:1003C000350B309327022093260220912002309192
:1003D00021024091040250910502241B350B3093F9
:1003E0001F0220931E026DDF90932D0280932C023A
:1003F000809126029091270264DF909325028093DA
:10040000240280911E0290911F025BDF90931D02D7
:1004100080931C0260912C0270912D0283E492E083
:10042000A6D260912C0270912D0280E492E09FD2BE
:1004300060912C0270912D028DE392E098D2609130
:100440002C0270912D028AE392E091D260912C02ED
:1004500070912D0287E392E0FF90EF90DF90CF90B4
:1004600086C283E492E082D180E492E07FD18DE382
:1004700092E07CD18AE392E079D187E392E076D171
:1004800084E392E073C1CF92DF92EF92FF920F93D9
:100490001F93CF93DF936C018B017A01EC01C95B51
:1004A000DD4F888187FF04C0FB011182108223C0C9
:1004B0002CE02C9DC0012D9D900D11242881AC01B4
:1004C000420F511D27FD5A952091460230E04217F8
:1004D00053078CF42881AC01420F511D27FD5A951A
:1004E0009A01FA01EE0FFF1FE20FF31FE55BFD4FCC
:1004F000208126FD19C088818F5F88838CE08C9DC8
:1005000090018D9D300D11248881A901480F511D46
:1005100087FD5A958091460290E048175907ACF440
:1005200088818C3034F111C02881820F911D27FD04
:100530009A95FC01EE0FFF1FE80FF91FE55BFD4FD9
:10054000808160E08F73DFD3D6CFF8018081918105
:10055000049680349C4918F480E49CE904C0F801B6
:10056000808191810496F701918380838FEF888346
:1005700040C0F801808191814881B901640F711DEB
:1005800047FD7A95AB01FB01EE0FFF1FE40FF51F4E
:10059000E55BFD4F41815281840F951FF7019183E7
:1005A00080838881A901480F511D87FD5A95FA0162
:1005B000EE0FFF1FE40FF51FE55BFD4F808186FF07
:1005C00018C08881280F311D87FD3A95F901EE0F7B
:1005D000FF1FE20FF31FE55BFD4F808161E08F732A
:1005E000DF91CF911F910F91FF90EF90DF90CF900F
:1005F0008AC3DF91CF911F910F91FF90EF90DF9011
:10060000CF9008951F920F920FB60F9211240BB640
:100610000F922F933F934F935F936F937F938F939B
:100620009F93AF93BF93EF93FF9348E850E064E844
:1006300070E081E090E027DFFF91EF91BF91AF91F3
:100640009F918F917F916F915F914F913F912F91EA
:100650000F900BBE0F900FBE0F901F9018951F921A
:100660000F920FB60F9211240BB60F922F933F9358
:100670004F935F936F937F938F939F93AF93BF93AA
:10068000EF93FF9348E950E064E970E082E090E086
:10069000FADEFF91EF91BF91AF919F918F917F9182
:1006A0006F915F914F913F912F910F900BBE0F90E3
:1006B0000FBE0F901F9018951F920F920FB60F92BA
:1006C00011240BB60F922F933F934F935F936F9329
:1006D0007F938F939F93AF93BF93EF93FF9348EADA
:1006E00050E064EA70E083E090E0CDDEFF91EF91AE
:1006F000BF91AF919F918F917F916F915F914F913A
:100700003F912F910F900BBE0F900FBE0F901F9037
:1007100018951F920F920FB60F9211240BB60F92DD
:100720002F933F934F935F936F937F938F939F93F9
:10073000AF93BF93EF93FF9348E251E064E271E01F
:1007400080E090E0A0DEFF91EF91BF91AF919F918B
:100750008F917F916F915F914F913F912F910F906A
:100760000BBE0F900FBE0F901F9018952091460260
:100770002033A0F431E0320F30934602FC01208395
:10078000822F90E0FC01EE0FFF1FE80FF91FE55BE1
:10079000FD4F88EB9BE09283818308952FEFFC014E
:1007A00020830895DF92EF92FF920F931F93CF93D0
:1007B000DF93EC01D62E7A0189018881803308F01D
:1007C00066C061E08D2D66D28881A82FB0E0FD0162
:1007D000EE0FFF1FEA0FFB1FE55BFD4F2D2D2F7363
:1007E0009081907C922B908360E272E06E197F0979
:1007F00077FF02C06D5F7F4F75956795759567951B
:10080000698340E659E0401B510B57FF02C04D5F22
:100810005F4F55954795559547954A836CE04AD566
:100820009CE0899FB001112420E030E0A901460F2F
:10083000571FFA01EE0FFF1FE40FF51FE55BFD4F99
:10084000908196FD18C02F5F3F4F2C30310571F716
:1008500090E08130910521F51092800082E0809334
:1008600081001092850010928400B19A80916F00EF
:10087000826080936F00888190E0FC01EE0FFF1F83
:10088000E80FF91FE55BFD4F8081806480838881DC
:10089000DF91CF911F910F91FF90EF90DF9008951E
:1008A0008230910569F41092900082E0809391006B
:1008B000109295001092940088BB80937100DBCF5A
:1008C0008330910569F41092A00082E08093A1002A
:1008D0001092A5001092A40089BB80937200CBCF28
:1008E000892B49F61092200182E080932101109219
:1008F0002501109224018ABB80937300BCCF20E6AF
:1009000039E040E252E04ECFFC018081803370F547
:10091000918128E830E0291B310997FD3395220F9A
:10092000331F220F331F621773077CF0928128E573
:1009300032E0291B310997FD3395220F331F220F17
:10094000331F621773070CF49B0122503109220FE9
:10095000331F4FB7F89490E0FC01EE0FFF1FE80F34
:10096000F91FE55BFD4F328321834FBF08954F92FE
:100970005F926F927F92AF92BF92CF92DF92EF928F
:10098000FF920F931F93CF93DF93EC01603282E0CD
:1009900078070CF03FC077FD06C0653B71052CF071
:1009A00064EB70E002C060E070E0898128E830E02C
:1009B000281B310987FD3395220F331F220F331F68
:1009C0005901CC24B7FCC094DC2C882777FD809596
:1009D000982F2A8148E552E0421B510927FD539583
:1009E000440F551F440F551F2A01662457FC60947D
:1009F000762C7F926F925F924F9214EBE12EF12C46
:100A000000E010E020E030E0A901F4D30F900F9057
:100A10000F900F90CE01DF91CF911F910F91FF901A
:100A2000EF90DF90CF90BF90AF907F906F905F90EE
:100A30004F906ACF1F920F920FB60F9211242F93EF
:100A40003F938F939F93AF93BF938091DC029091DC
:100A5000DD02A091DE02B091DF023091DB0223E0E3
:100A6000230F2D3720F40196A11DB11D05C026E8E6
:100A7000230F0296A11DB11D2093DB028093DC029F
:100A80009093DD02A093DE02B093DF028091E0023A
:100A90009091E102A091E202B091E3020196A11DC2
:100AA000B11D8093E0029093E102A093E202B09323
:100AB000E302BF91AF919F918F913F912F910F9042
:100AC0000FBE0F901F9018952FB7F8946091DC021D
:100AD0007091DD028091DE029091DF022FBF0895B8
:100AE000789484B5826084BD84B5816084BD85B509
:100AF000826085BD85B5816085BDEEE6F0E08081D0
:100B000081608083E1E8F0E01082808182608083F0
:100B1000808181608083E0E8F0E080818160808373
:100B2000E1EBF0E0808184608083E0EBF0E08081A5
:100B300081608083E1E9F0E0808182608083808150
:100B400081608083E0E9F0E0808181608083E1EA78
:100B5000F0E0808182608083808181608083E0EA30
:100B6000F0E0808181608083E1E2F1E08081826059
:100B70008083808181608083E0E2F1E08081816018
:100B80008083EAE7F0E080818460808380818260F6
:100B900080838081816080838081806880831092DF
:100BA000C1000895863308F0865320917B00982F6A
:100BB0009870277F922B90937B00877020910A0278
:100BC00090E4299F90011124822B80937C008091D6
:100BD0007A00806480937A0080917A0086FDFCCF51
:100BE000809178002091790090E0922B089590E018
:100BF000FC013197E231F10508F04BC0EE58FF4F90
:100C0000A3C3809180008F7703C0809180008F7D87
:100C100080938000089580918000877FF9CF84B50C
:100C20008F7702C084B58F7D84BD08958091B00018
:100C30008F7703C08091B0008F7D8093B0000895BE
:100C4000809190008F7707C0809190008F7D03C0C6
:100C500080919000877F8093900008958091A000FC
:100C60008F7707C08091A0008F7D03C08091A00086
:100C7000877F8093A0000895809120018F7707C01F
:100C8000809120018F7D03C080912001877F809318
:100C900020010895CF93DF9390E0FC01E25BFE4FCB
:100CA0002491FC01EC56FE4F8491882349F190E099
:100CB000880F991FFC01EC50FE4FA591B49186520C
:100CC0009E4FFC01C591D4919FB7611108C0F89463
:100CD0008C91209582238C93888182230AC0623074
:100CE00051F4F8948C91322F309583238C93888122
:100CF000822B888304C0F8948C91822B8C939FBFA5
:100D0000DF91CF9108950F931F93CF93DF931F929D
:100D1000CDB7DEB7282F30E0F901E85FFE4F8491B0
:100D2000F901E25BFE4F1491F901EC56FE4F04917C
:100D30000023C1F0882319F0698359DF6981E02F0E
:100D4000F0E0EE0FFF1FE652FE4FA591B4919FB762
:100D5000F8948C91611103C01095812301C0812BFF
:100D60008C939FBF0F90DF91CF911F910F910895AA
:100D7000FC01818D228D90E0805C9F4F821B910948
:100D80008F7399270895FC01918D828D981731F00A
:100D9000828DE80FF11D858D90E008958FEF9FEF14
:100DA0000895FC01918D828D981761F0828DDF018D
:100DB000A80FB11D5D968C91928D9F5F9F73928F4E
:100DC00090E008958FEF9FEF089586E898E0892BD3
:100DD00039F080E090E0892B19F098D1811125C07D
:100DE00080E090E0892B41F080E090E0892B21F0B9
:100DF0000E94000081111CC080E090E0892B41F02E
:100E000080E090E0892B21F00E940000811113C046
:100E100080E090E0892BA1F080E090E0892B81F0C8
:100E20000E94000081110AC008950E940000D8CFDE
:100E30000E940000E1CF0E940000EACF0C94000065
:100E40000895FC01848DDF01A80FB11DA35ABF4F87
:100E50002C91848D90E001968F739927848FA689B9
:100E6000B7892C93A089B1898C9180648C93938DE0
:100E7000848D981306C00288F389E02D80818F7DD0
:100E800080830895CF93DF93EC01888D8823C1F090
:100E9000EA89FB89808185FD05C0A889B9898C9183
:100EA00086FD0EC00FB607FCF5CF808185FFF2CF1F
:100EB000A889B9898C9185FFEDCFCE01C2DFE8CF3B
:100EC000DF91CF910895CF92DF92FF920F931F93FE
:100ED000CF93DF931F92CDB7DEB76C0181E0D601CF
:100EE00058968C9358975B969C915B975C968C91E7
:100EF0005C97981307C05096ED91FC9151978081B3
:100F000085FD2DC0F601038D10E00F5F1F4F0F739D
:100F10001127F02EF601848DF81210C00FB607FCD1
:100F2000F9CFD6015096ED91FC915197808185FFC4
:100F3000F1CFC601698385DF6981ECCF838DE80F2E
:100F4000F11DE35AFF4F6083D6015B960C935B97CC
:100F50005296ED91FC915397808180620CC0D6012E
:100F60005696ED91FC91579760835096ED91FC91C8
:100F7000519780818064808381E090E00F90DF91C1
:100F8000CF911F910F91FF90DF90CF900895BF9266
:100F9000CF92DF92EF92FF92CF93DF93EC016A0141
:100FA0007B01B22EE889F98982E08083411581EEC8
:100FB00058076105710599F060E079E08DE390E0F4
:100FC000A701960183D12150310941095109569554
:100FD000479537952795211580E1380790F0E889E6
:100FE000F989108260E874E88EE190E0A70196012B
:100FF0006DD12150310941095109569547953795D1
:101000002795EC85FD853083EE85FF852083188E3E
:10101000EC89FD89B082EA89FB89808180618083C7
:10102000EA89FB89808188608083EA89FB898081E5
:1010300080688083EA89FB8980818F7D8083DF914E
:10104000CF91FF90EF90DF90CF90BF9008951F92C7
:101050000F920FB60F9211240BB60F922F938F930E
:101060009F93EF93FF93E091F402F091F50280815A
:10107000E091FA02F091FB0282FD12C09081809112
:10108000FD028F5F8F732091FE02821751F0E09175
:10109000FD02F0E0EC51FD4F958F8093FD0201C001
:1010A0008081FF91EF919F918F912F910F900BBEB7
:1010B0000F900FBE0F901F9018951F920F920FB6B2
:1010C0000F9211240BB60F922F933F934F935F9380
:1010D0006F937F938F939F93AF93BF93EF93FF9300
:1010E00084EE92E0AEDEFF91EF91BF91AF919F91C0
:1010F0008F917F916F915F914F913F912F910F90C1
:101100000BBE0F900FBE0F901F90189584EE92E0CB
:101110002FDE21E0892B09F420E0822F0895109220
:10112000E7021092E60288EE93E0A0E0B0E0809340
:10113000E8029093E902A093EA02B093EB028FE0F9
:1011400092E09093E5028093E40285EC90E0909326
:10115000F1028093F00284EC90E09093F30280938C
:10116000F20280EC90E09093F5028093F40281EC1F
:1011700090E09093F7028093F60282EC90E09093D7
:10118000F9028093F80286EC90E09093FB02809342
:10119000FA021092FD021092FE021092FF021092CB
:1011A00000030895CF92DF92EF92FF920F931F9367
:1011B000CF93DF937C016A01EB0100E010E00C1596
:1011C0001D0571F06991D701ED91FC910190F081BD
:1011D000E02DC7011995892B19F00F5F1F4FEFCF35
:1011E000C801DF91CF911F910F91FF90EF90DF9099
:1011F000CF9008954F925F926F927F92AF92BF927D
:10120000CF92DF92EF92FF920F931F93CF93DF93D2
:10121000CDB7DEB729013A01621B730B840B950B26
:101220002A893B894C895D892A193B094C095D094A
:101230002A8B3B8B4C8B5D8B9B01AC016A897B8934
:101240008C899D8928D0E418F50806091709A8019A
:1012500097015ED02A0D3B1D4C1D5D1DCA01B901D1
:10126000DF91CF911F910F91FF90EF90DF90CF9082
:10127000BF90AF907F906F905F904F9008950895CA
:101280002FDCFDDF0E943B01C5EED6E05ED8209743
:10129000E9F39BDDFBCFDB018F939F935BD0BF9185
:1012A000AF91A29F800D911DA39F900DB29F900DB5
:1012B00011240895991B79E004C0991F961708F02E
:1012C000961B881F7A95C9F780950895A1E21A2E7A
:1012D000AA1BBB1BFD010DC0AA1FBB1FEE1FFF1FDA
:1012E000A217B307E407F50720F0A21BB30BE40B2A
:1012F000F50B661F771F881F991F1A9469F7609571
:101300007095809590959B01AC01BD01CF0108952A
:10131000052E97FB16F400940FD057FD05D0D6DFAD
:1013200007FC02D046F408C05095409530952195B1
:101330003F4F4F4F5F4F0895909580957095619501
:101340007F4F8F4F9F4F0895EE0FFF1F0590F49131
:10135000E02D19940DD0A59F900DB49F900DA49FE2
:10136000800D911D112408950790F691E02D199498
:10137000A29FB001B39FC001A39F700D811D1124D6
:10138000911DB29F700D811D1124911D0895F89437
:02139000FFCF8D
:1013920001000000000400040004010000000063DA
:0C13A20007D208B806D106C306420700B7
:00000001FF
